:020000040800F2
:1000000000000220791C0008051B00080B1B0008DB
:10001000111B0008171B00081D1B00080000000032
:10002000000000000000000000000000E172000875
:10003000231B0008000000003175000899750008B6
:10004000C91C0008C91C0008C91C0008C91C0008FC
:10005000C91C0008C91C0008C91C0008C91C0008EC
:10006000C91C0008C91C0008C91C0008C91C0008DC
:10007000C91C0008C91C0008C91C0008C91C0008CC
:10008000C91C0008C91C0008C91C0008C91C0008BC
:10009000C91C0008C91C0008C91C0008C91C0008AC
:1000A000C91C0008C91C0008C91C0008C91C00089C
:1000B000C91C0008C91C0008C91C0008C91C00088C
:1000C000C91C0008C91C0008C91C0008C91C00087C
:1000D000C91C0008C91C0008517E0008311B00081B
:1000E000451B0008C91C0008C91C0008C91C0008E1
:1000F000C91C0008C91C0008C91C0008C91C00084C
:10010000C91C0008C91C0008C91C0008C91C00083B
:10011000C91C0008C91C0008591B0008C91C00089C
:10012000C91C0008C91C0008C91C0008C91C00081B
:10013000C91C00080000000000000000C91C0008E5
:10014000C91C0008C91C0008C91C0008C91C0008FB
:10015000C91C0008C91C0008C91C0008C91C0008EB
:10016000C91C0008C91C0008C91C0008C91C0008DB
:10017000C91C0008C91C0008C91C000800000000B8
:1001800000000000C91C0008000000000000000082
:10019000C91C00080000000000000000C91C000885
:1001A000000000000000000000000000C91C000862
:1001B000C91C0008C91C0008C91C0008C91C00088B
:0401C000C91C00084E
:1001D00010B5054C237833B9044B13B10448AFF381
:1001E00000800123237010BDF401002000000000F6
:1001F00038DC000808B5034B1BB103490348AFF3D3
:10020000008008BD00000000F801002038DC000874
:10021000F0B400EB4003DFF8880000EBC30000F10E
:1002200018063069F7687568874232D3B368DC1BFB
:10023000631E934214D37D19D01900BF11F8013BFE
:1002400005F8013B013A05D011F8013B05F8013BE7
:10025000013AF3D1BFF35F8FF0600120F0BC70472B
:10026000C018904219D37819121B11F8013B00F8FD
:10027000013B013CF9D1141C05D011F8013B05F8F4
:10028000013B013AF9D1BFF35F8FF4600120F0BC6C
:100290007047C01B01389042CDD20020F0BC70479F
:1002A00054310120034613F8012B002AFBD1181A00
:1002B000013870470000000000000000000000004E
:1002C00001F0FF01102A2BDB10F0070F08D010F807
:1002D000013B013A8B422DD010F0070F42B3F6D10B
:1002E000F0B441EA012141EA014122F007047FF024
:1002F00000070023F0E80256083C85EA010586EA7B
:10030000010685FA47F5A3FA87F586FA47F6A5FAB6
:1003100087F68EB9EED1F0BC01F0FF0102F00702C2
:1003200032B110F8013B013A83EA010313B1F8D16D
:100330000020704701387047002D06BF354603384E
:10034000073815F0010F07D1013015F4807F02BF87
:10035000013015F4C03F0130F0BC0138704700BFD8
:1003600081F0004102E000BF83F0004330B54FEA66
:1003700041044FEA430594EA050F08BF90EA020FD3
:100380001FBF54EA000C55EA020C7FEA645C7FEA66
:10039000655C00F0E2804FEA5454D4EB5555B8BF89
:1003A0006D420CDD2C4480EA020281EA030382EAFA
:1003B000000083EA010180EA020281EA0303362D8C
:1003C00088BF30BD11F0004F4FEA01314FF4801C5F
:1003D0004CEA113102D0404261EB410113F0004F71
:1003E0004FEA03334CEA133302D0524263EB430328
:1003F00094EA050F00F0A780A4F10104D5F1200EC6
:100400000DDB02FA0EFC22FA05F2801841F1000120
:1004100003FA0EF2801843FA05F359410EE0A5F1F4
:1004200020050EF1200E012A03FA0EFC28BF4CF025
:10043000020C43FA05F3C01851EBE37101F00045DB
:1004400007D54FF0000EDCF1000C7EEB00006EEBE8
:100450000101B1F5801F1BD3B1F5001F0CD3490872
:100460005FEA30004FEA3C0C04F101044FEA4452C9
:1004700012F5800F80F09A80BCF1004F08BF5FEA50
:10048000500C50F1000041EB045141EA050130BD30
:100490005FEA4C0C404141EB0101013C28BFB1F542
:1004A000801FE9D291F0000F04BF01460020B1FA8D
:1004B00081F308BF2033A3F10B03B3F120020CDA60
:1004C0000C3208DD02F1140CC2F10C0201FA0CF03E
:1004D00021FA02F10CE002F11402D8BFC2F1200CA3
:1004E00001FA02F120FA0CFCDCBF41EA0C01904059
:1004F000E41AA2BF01EB0451294330BD6FEA0404A2
:100500001F3C1CDA0C340EDC04F11404C4F120028C
:1005100020FA04F001FA02F340EA030021FA04F39E
:1005200045EA030130BDC4F10C04C4F1200220FAF5
:1005300002F001FA04F340EA0300294630BD21FA33
:1005400004F0294630BD94F0000F83F4801306BFF9
:1005500081F480110134013D4EE77FEA645C18BFED
:100560007FEA655C29D094EA050F08BF90EA020F84
:1005700005D054EA000C04BF1946104630BD91EA7C
:10058000030F1EBF0021002030BD5FEA545C05D17F
:100590004000494128BF41F0004130BD14F58004BE
:1005A0003CBF01F5801130BD01F0004545F0FE4132
:1005B00041F470014FF0000030BD7FEA645C1ABF67
:1005C000194610467FEA655C1CBF0B46024650EA9E
:1005D000013406BF52EA033591EA030F41F40021CA
:1005E00030BD00BF90F0000F04BF0021704730B550
:1005F0004FF4806404F132044FF000054FF0000125
:1006000050E700BF90F0000F04BF0021704730B5E5
:100610004FF4806404F1320410F0004548BF4042BA
:100620004FF000013EE700BF42004FEAE2014FEA0F
:1006300031014FEA02701FBF12F07F4393F07F4FEA
:1006400081F06051704732F07F4208BF704793F0ED
:100650007F4F04BF41F40021704730B54FF4607400
:1006600001F0004521F000411CE700BF50EA010203
:1006700008BF704730B54FF000050AE050EA0102AC
:1006800008BF704730B511F0004502D5404261EB1C
:1006900041014FF4806404F132045FEA915C3FF45D
:1006A000D8AE4FF003025FEADC0C18BF03325FEAFA
:1006B000DC0C18BF033202EBDC02C2F1200300FAAB
:1006C00003FC20FA02F001FA03FE40EA0E0021FAD0
:1006D00002F11444BDE600BF70B54FF0FF0C4CF4BE
:1006E000E06C1CEA11541DBF1CEA135594EA0C0F70
:1006F00095EA0C0F00F0DEF82C4481EA030621EAAB
:100700004C5123EA4C5350EA013518BF52EA0335E5
:1007100041F4801143F4801338D0A0FB02CE4FF097
:100720000005E1FB02E506F00042E0FB03E54FF0C7
:100730000006E1FB03569CF0000F18BF4EF0010EBF
:10074000A4F1FF04B6F5007F64F5407404D25FEABB
:100750004E0E6D4146EB060642EAC62141EA55516E
:100760004FEAC52040EA5E504FEACE2EB4F1FD0CB0
:1007700088BFBCF5E06F1ED8BEF1004F08BF5FEA2E
:10078000500E50F1000041EB045170BD06F00046E0
:1007900046EA010140EA020081EA0301B4EB5C048D
:1007A000C2BFD4EB0C0541EA045170BD41F4801185
:1007B0004FF0000E013C00F3AB8014F1360FDEBFAA
:1007C000002001F0004170BDC4F10004203C35DA86
:1007D0000C341BDC04F11404C4F1200500FA05F309
:1007E00020FA04F001FA05F240EA020001F00042AA
:1007F00021F0004110EBD37021FA04F642EB060120
:100800005EEA430E08BF20EAD37070BDC4F10C0449
:10081000C4F1200500FA04F320FA05F001FA04F20D
:1008200040EA020001F0004110EBD37041F10001F9
:100830005EEA430E08BF20EAD37070BDC4F1200504
:1008400000FA05F24EEA020E20FA04F301FA05F26C
:1008500043EA020321FA04F001F0004121FA04F214
:1008600020EA020000EBD3705EEA430E08BF20EAE4
:10087000D37070BD94F0000F0FD101F0004640001E
:1008800041EB010111F4801F08BF013CF7D041EAA0
:10089000060195F0000F18BF704703F000465200A4
:1008A00043EB030313F4801F08BF013DF7D043EA75
:1008B0000603704794EA0C0F0CEA135518BF95EA2B
:1008C0000C0F0CD050EA410618BF52EA4306D1D1B2
:1008D00081EA030101F000414FF0000070BD50EAD1
:1008E000410606BF1046194652EA430619D094EA5B
:1008F0000C0F02D150EA013613D195EA0C0F05D145
:1009000052EA03361CBF104619460AD181EA030198
:1009100001F0004141F0FE4141F470014FF0000050
:1009200070BD41F0FE4141F4780170BD70B54FF0EB
:10093000FF0C4CF4E06C1CEA11541DBF1CEA13556B
:1009400094EA0C0F95EA0C0F00F0A7F8A4EB05044D
:1009500081EA030E52EA03354FEA013100F0888044
:100960004FEA03334FF0805545EA131343EA12630D
:100970004FEA022245EA111545EA10654FEA0026C2
:100980000EF000419D4208BF964244F1FD0404F57B
:10099000407402D25B084FEA3202B61A65EB0305D7
:1009A0005B084FEA32024FF480104FF4002CB6EB94
:1009B000020E75EB030E22BFB61A754640EA0C0014
:1009C0005B084FEA3202B6EB020E75EB030E22BF54
:1009D000B61A754640EA5C005B084FEA3202B6EB95
:1009E000020E75EB030E22BFB61A754640EA9C0054
:1009F0005B084FEA3202B6EB020E75EB030E22BF24
:100A0000B61A754640EADC0055EA060E18D04FEAE1
:100A1000051545EA16754FEA06164FEAC30343EA81
:100A200052734FEAC2025FEA1C1CC0D111F4801F4E
:100A30000BD141EA00014FF000004FF0004CB6E747
:100A400011F4801F04BF01430020B4F1FD0C88BFE6
:100A5000BCF5E06F3FF6AFAEB5EB030C04BFB6EBF1
:100A6000020C5FEA500C50F1000041EB045170BDE4
:100A70000EF0004E4EEA113114EB5C04C2BFD4EB11
:100A80000C0541EA045170BD41F480114FF0000E95
:100A9000013C90E645EA060E8DE60CEA135594EA11
:100AA0000C0F08BF95EA0C0F3FF43BAF94EA0C0F14
:100AB0000AD150EA01347FF434AF95EA0C0F7FF489
:100AC00025AF104619462CE795EA0C0F06D152EADD
:100AD00003353FF4FDAE1046194622E750EA4106C1
:100AE00018BF52EA43067FF4C5AE50EA41047FF4D2
:100AF0000DAF52EA43057FF4EBAE12E74FF0FF3C37
:100B000006E000BF4FF0010C02E000BF4FF0010C07
:100B10004DF804CD4FEA410C7FEA6C5C4FEA430C80
:100B200018BF7FEA6C5C1BD001B050EA410C0CBFCF
:100B300052EA430C91EA030F02BF90EA020F002031
:100B4000704710F1000F91EA030F58BF994208BF98
:100B500090422CBFD8176FEAE37040F00100704755
:100B60004FEA410C7FEA6C5C02D150EA013C07D1AC
:100B70004FEA430C7FEA6C5CD6D152EA033CD3D0F7
:100B80005DF8040B704700BF8446104662468C46F1
:100B90001946634600E000BF01B5FFF7B7FF002824
:100BA00048BF10F1000F01BD4DF808EDFFF7F4FF4D
:100BB0000CBF012000205DF808FB00BF4DF808EDD8
:100BC000FFF7EAFF34BF012000205DF808FB00BFFB
:100BD0004DF808EDFFF7E0FF94BF012000205DF81D
:100BE00008FB00BF4DF808EDFFF7CEFF94BF0120D2
:100BF00000205DF808FB00BF4DF808EDFFF7C4FFCB
:100C000034BF012000205DF808FB00BF4FEA410C13
:100C10007FEA6C5C02D150EA013C0AD14FEA430CF6
:100C20007FEA6C5C02D152EA033C02D14FF0000033
:100C300070474FF0010070474A0011D212F50012C0
:100C400011D20DD56FF47873B3EB62520ED44FEA24
:100C5000C12343F0004343EA505323FA02F07047A4
:100C60004FF00000704750EA013002D14FF0FF30E2
:100C700070474FF0000070474FEA4102B2F1E04385
:100C800024BFB3F5001CDCF1FE5C0DD901F0004C73
:100C90004FEAC0024CEA5070B2F1004F40EB8300C3
:100CA00008BF20F00100704711F0804F21D113F1EF
:100CB0003872BCBF01F00040704741F480114FEA28
:100CC0005252C2F11802C2F1200C10FA0CF320FAB1
:100CD00002F018BF40F001004FEAC1234FEAD323CE
:100CE00003FA0CFC40EA0C0023FA02F34FEA430338
:100CF000CCE77FEA625307D150EA01331EBF4FF0C1
:100D0000FE4040F44000704701F0004040F0FE40DB
:100D100040F40000704700BF53B94AB9002908BF2A
:100D200000281CBF4FF0FF314FF0FF3000F0AAB990
:100D3000ADF1080C6DE904CE00F03CF8DDF804E0FC
:100D4000DDE9022304B0704738B5002200230446D1
:100D50000D46FFF733FF28B920462946BDE8384045
:100D600000F00AB8204605F1004100F005F84042C5
:100D700061EB410138BD00BFD0B50C4B00220646E7
:100D80000F46FFF7A9FCFFF757FF0446FFF72AFCC1
:100D9000074B0022FFF7A0FC02460B4630463946BF
:100DA000FFF7E2FAFFF748FF2146D0BD0000F03D13
:100DB0000000F0412DE9F047089D04468E46002BC7
:100DC0004DD18A42944669D9B2FA82F252B101FAFF
:100DD00002F3C2F1200120FA01F10CFA02FC41EA0F
:100DE000030E94404FEA1C48210CBEFBF8F61FFA94
:100DF0008CF708FB16E341EA034306FB07F199422F
:100E00000AD91CEB030306F1FF3080F01F819942E1
:100E100040F21C81023E63445B1AA4B2B3FBF8F0BB
:100E200008FB103344EA034400FB07F7A7420AD942
:100E30001CEB040400F1FF3380F00A81A74240F26A
:100E400007816444023840EA0640E41B00261DB1D5
:100E5000D4400023C5E900433146BDE8F0878B420A
:100E600009D9002D00F0EF800026C5E900013046C9
:100E70003146BDE8F087B3FA83F6002E4AD18B42A3
:100E800002D3824200F2F980841A61EB030301204D
:100E90009E46002DE0D0C5E9004EDDE702B9FFDE39
:100EA000B2FA82F2002A40F09280A1EB0C014FEAE4
:100EB0001C471FFA8CFE0126200CB1FBF7F307FB41
:100EC000131140EA01410EFB03F0884208D91CEBE4
:100ED000010103F1FF3802D2884200F2CB80434681
:100EE000091AA4B2B1FBF7F007FB101144EA014460
:100EF0000EFB00FEA64508D91CEB040400F1FF31EF
:100F000002D2A64500F2BB800846A4EB0E0440EADC
:100F100003409CE7C6F12007B34022FA07FC4CEAE5
:100F2000030C20FA07F401FA06F31C43F9404FEAD8
:100F30001C4900FA06F3B1FBF9F8200C1FFA8CFEED
:100F400009FB181140EA014108FB0EF0884202FA41
:100F500006F20BD91CEB010108F1FF3A80F0888002
:100F6000884240F28580A8F102086144091AA4B2BF
:100F7000B1FBF9F009FB101144EA014100FB0EFE40
:100F80008E4508D91CEB010100F1FF346CD28E456F
:100F90006AD90238614440EA0840A0FB0294A1EB00
:100FA0000E01A142C846A64656D353D05DB1B3EB5D
:100FB000080261EB0E0101FA07F722FA06F3F1408D
:100FC0001F43C5E9007100263146BDE8F087C2F134
:100FD0002003D8400CFA02FC21FA03F391400143AC
:100FE0004FEA1C471FFA8CFEB3FBF7F007FB1036E5
:100FF0000B0C43EA064300FB0EF69E4204FA02F491
:1010000008D91CEB030300F1FF382FD29E422DD9E3
:10101000023863449B1B89B2B3FBF7F607FB163318
:1010200041EA034106FB0EF38B4208D91CEB010198
:1010300006F1FF3816D28B4214D9023E6144C91A18
:1010400046EA004638E72E46284605E70646E3E628
:101050001846F8E64B45A9D2B9EB020864EB0C0E32
:101060000138A3E74646EAE7204694E74046D1E741
:10107000D0467BE7023B614432E7304609E76444EF
:10108000023842E7704700BF80B586B002AF00F07B
:101090001DFE00F0A3F800F0DBF900F00DF900F000
:1010A000ADF93F4B1B683E4A43F0010313603D48D6
:1010B00006F0BCFE06F0E4FC3B4B019302230093D8
:1010C0000023C82239493A4804F068FC0346394AEB
:1010D0001360384B1B68012B0AD04FF0500383F389
:1010E0001188BFF36F8FBFF34F8FFB6000BFFEE728
:1010F000314B0193022300930023C8222F4930482B
:1011000004F04CFC03462B4A13602A4B1B68012B4E
:101110000AD04FF0500383F31188BFF36F8FBFF3F2
:101120004F8FBB6000BFFEE7264B01930223009365
:101130000023C8222449254804F030FC03461D4AF8
:1011400013601C4B1B68012B0AD04FF0500383F334
:101150001188BFF36F8FBFF34F8F7B6000BFFEE737
:101160001B4B0193022300930023C82219491A48FC
:1011700004F014FC03460F4A13600E4B1B68012B4E
:101180000AD04FF0500383F31188BFF36F8FBFF382
:101190004F8F3B6000BFFEE704F088FDFEE700BF15
:1011A000001000E090D003009C02002050DC0008FA
:1011B00089150008AC020020A002002060DC0008B5
:1011C000D9150008A40200206CDC00080D160008E8
:1011D000A802002080DC0008D517000880B594B074
:1011E00000AF07F11C0334220021184609F012FA5F
:1011F00007F1080300221A605A609A60DA601A61E7
:1012000000237B602A4B1B6C294A43F080531364F4
:10121000274B1B6C03F080537B607B6800233B6093
:10122000244B1B6823F44043224A43F48043136059
:10123000204B1B6803F440433B603B680223FB6187
:101240000123BB621023FB6202237B630023BB6389
:101250000823FB6340233B6402237B640223BB64BB
:101260000223FB6407F11C03184601F033FC03461C
:10127000002B01D000F0CEFA0F23BB600223FB60ED
:1012800090233B614FF480537B614FF48053BB61EB
:1012900007F108030021184601F0A0F80346002BCF
:1012A00001D000F0B7FA00BF5037BD4680BD00BF87
:1012B000003802400070004080B596B000AF07F1E2
:1012C000480300221A605A609A60DA6007F140030E
:1012D00000221A605A6007F1240300221A605A6043
:1012E0009A60DA601A615A619A613B1D20220021DE
:1012F000184609F08FF93F4B3F4A1A603D4B0F22C9
:101300005A603C4B00229A603A4B44F62062DA6005
:10131000384B00221A61374B00225A61354B80222C
:101320009A61344801F074FE0346002B01D000F0AE
:1013300071FA4FF48053BB6407F1480319462D48F6
:1013400002F012FA0346002B01D000F063FA29489C
:1013500001F01EFF0346002B01D000F05BFA0023D2
:101360003B6400237B6407F140031946214802F0E7
:10137000FBFD0346002B01D000F04CFA60237B629A
:101380004AF6E623BB620023FB6200233B6304238F
:101390007B630023BB630023FB6307F1240300226C
:1013A0001946144802F01EF90346002B01D000F044
:1013B00031FA00237B600023BB600023FB60002325
:1013C0003B6100237B614FF40053BB6100233B6210
:1013D0003B1D1946074802F043FE0346002B01D08F
:1013E00000F018FA034800F065FA00BF5837BD4610
:1013F00080BD00BF100200200000014080B500AF9A
:10140000114B124A1A60104B4FF416525A600E4B91
:1014100000229A600C4B0022DA600B4B00221A610A
:10142000094B0C225A61084B00229A61064B00229C
:10143000DA61054802F07AFE0346002B01D000F085
:10144000E9F900BF80BD00BF5802002000480040FD
:1014500080B58AB000AF07F1140300221A605A6009
:101460009A60DA601A6100233B61444B1B6B434A6C
:1014700043F004031363414B1B6B03F004033B6114
:101480003B690023FB603D4B1B6B3C4A43F08003F0
:1014900013633A4B1B6B03F08003FB60FB68002374
:1014A000BB60364B1B6B354A43F001031363334B70
:1014B0001B6B03F00103BB60BB6800237B602F4BF9
:1014C0001B6B2E4A43F0020313632C4B1B6B03F080
:1014D00002037B607B6800222021294800F040FF46
:1014E00000224FF4B071274800F03AFF4FF4005348
:1014F0007B614FF40413BB610023FB6107F114030C
:101500001946204800F098FD0C237B610223BB6143
:101510000023FB6103233B6207237B6207F1140373
:101520001946174800F088FD20237B610123BB6129
:101530000023FB6100233B6207F1140319461048A6
:1015400000F07AFD4FF4B0737B610123BB6100238F
:10155000FB6100233B6207F114031946094800F0C0
:101560006BFD00220621282000F0AAFC282000F0B4
:10157000C3FC00BF2837BD4680BD00BF0038024015
:10158000000002400008024080B584B002AF7860DD
:101590000D4B0093002300220021002005F040F9AC
:1015A0000A4808F03FFF4FF0FF330122084909487D
:1015B00002F009FE044B00930023002200210020CA
:1015C00005F02EF9ECE700BF3689410050DC000839
:1015D000000000205802002080B584B002AF78607F
:1015E000074808F01FFF0021064801F02BFE064BBC
:1015F0000093002300220021002005F011F9EFE7FD
:1016000090DC0008100200203689410080B584B0CB
:1016100002AF78603B4B00930023002200210020A2
:1016200005F0FEF8384808F0FDFE384B1B780A2B11
:1016300017D9374B01221A70354B00221A7000213E
:10164000344801F0FFFD334B1B6843F698225A6380
:101650002C4B0093002300220021002005F0E0F82D
:10166000E0E72A4B1B78092B1BD8284B1B78072B4C
:1016700017D9274B01221A70254B00221A7000211E
:10168000244801F0DFFD234B1B6842F210725A63BD
:101690001C4B0093002300220021002005F0C0F81D
:1016A0002EE01A4B1B78062B1BD8184B1B78052BEA
:1016B00017D9174B01221A70154B00221A700021FE
:1016C000144801F0BFFD134B1B6841F288325A6386
:1016D0000C4B0093002300220021002005F0A0F80D
:1016E0000EE00A4B1B78042B9CD8084B1B78002B70
:1016F00098D0084B1B6800225A63054B01221A70D0
:1017000090E700BF368941006CDC0008B102002080
:10171000B00200201002002080B586B002AF7860D1
:1017200008F02EFC0E4B186807F10C030193002300
:10173000009300230022002105F0FAF8FB68002B3B
:1017400007D0084B4FF080521A60BFF34F8FBFF3A2
:101750006F8F08F057FC00BF1037BD4680BD00BF3B
:101760009C02002004ED00E080B584B002AF7860F8
:101770007B681B68124A93421ED1124B1B78092BBF
:101780001AD808F0FDFB104B1868104B019300238A
:10179000009300230022002105F0CAF80B4B1B68C0
:1017A000002B07D00A4B4FF080521A60BFF34F8FC7
:1017B000BFF36F8F08F026FC00BF0837BD4680BD21
:1017C00000480040B1020020A4020020B402002022
:1017D00004ED00E080B582B000AF786001220249DC
:1017E000024802F082FDF9E7B10200205802002011
:1017F00080B582B000AF78607B681B68044A934272
:1018000001D100F085FA00BF0837BD4680BD00BF9A
:101810000010004080B400AF72B600BFFEE70000C9
:1018200080B483B000AF00237B60104B5B6C0F4A29
:1018300043F4804353640D4B5B6C03F480437B6043
:101840007B6800233B60094B1B6C084A43F08053C4
:101850001364064B1B6C03F080533B603B6800BF76
:101860000C37BD465DF8047B704700BF003802406E
:1018700080B485B000AF78607B681B680B4A9342E8
:101880000DD10023FB600A4B5B6C094A43F0010356
:101890005364074B5B6C03F00103FB60FB6800BF04
:1018A0001437BD465DF8047B704700BF000001405F
:1018B0000038024080B588B000AF786007F10C03B3
:1018C00000221A605A609A60DA601A617B681B68AD
:1018D000124A93421ED10023BB60114B1B6B104A6E
:1018E00043F0010313630E4B1B6B03F00103BB605A
:1018F000BB684FF48073FB6002233B6100237B6174
:101900000023BB610123FB6107F10C031946054865
:1019100000F092FB00BF2037BD4680BD00000140B3
:10192000003802400000024080B58AB000AF786005
:1019300007F1140300221A605A609A60DA601A6193
:101940007B681B682D4A934253D100233B612C4B8B
:101950001B6C2B4A43F480231364294B1B6C03F448
:1019600080233B613B690023FB60254B1B6B244AB2
:1019700043F002031363224B1B6B03F00203FB6073
:10198000FB680023BB601E4B1B6B1D4A43F0040326
:1019900013631B4B1B6B03F00403BB60BB684FF46A
:1019A00080637B610223BB610023FB6103233B62F5
:1019B00007237B6207F114031946124800F03CFB31
:1019C0004FF400637B610223BB610023FB610323AF
:1019D0003B6207237B6207F1140319460A4800F0B3
:1019E0002BFB00220621272000F06AFA272000F0B6
:1019F00083FA00BF2837BD4680BD00BF00480040C5
:101A000000380240000402400008024080B58EB059
:101A100000AF78600023FB620023BB620023FB6001
:101A2000334B1B6C324A43F010031364304B1B6C76
:101A300003F01003FB60FB6807F1100207F11403C9
:101A40001146184600F0E4FD3B6AFB62FB6A002B7E
:101A500003D100F0B5FD786304E000F0B1FD03466A
:101A60005B007B637B6B234AA2FB03239B0C013B44
:101A7000BB62214B214A1A601F4B40F2E732DA6009
:101A80001D4ABB6A53601C4B00221A611A4B00228C
:101A90009A60194B00229A61174801F0B9FA03467F
:101AA00087F8333097F83330002B1BD1124801F000
:101AB000FFFA034687F8333097F83330002B11D103
:101AC000362000F019FA7B680F2B08D800227968BD
:101AD000362000F0F5F90A4A7B68136002E0012322
:101AE00087F8333097F8333018463837BD4680BD15
:101AF0000038024083DE1B43B80200200010004083
:101B00000800002080B400AFFEE780B400AFFEE71D
:101B100080B400AFFEE780B400AFFEE780B400AF52
:101B2000FEE780B400AF00BFBD465DF8047B7047A0
:101B300080B500AF024802F009FC00BF80BD00BFC5
:101B40005802002080B500AFFFF7E6FD4FF40050CB
:101B500000F020FC00BF80BD80B500AF024801F05E
:101B600039FC00BF80BD00BFB802002080B400AFC8
:101B700001231846BD465DF8047B704780B582B0EE
:101B800000AF7860396008F0FDFC034616221A6049
:101B90004FF0FF3318460837BD4680BD80B582B090
:101BA00000AF78604FF0FF317868FFF7E7FFFEE79E
:101BB00080B586B000AFF860B9607A6000237B61C1
:101BC0000AE0AFF300800146BB685A1CBA60CAB293
:101BD0001A707B6901337B617A697B689A42F0DB1A
:101BE0007B6818461837BD4680BD80B483B000AF0F
:101BF00078604FF0FF3318460C37BD465DF8047B24
:101C0000704780B483B000AF786039603B684FF4B0
:101C100000525A60002318460C37BD465DF8047B1D
:101C2000704780B483B000AF7860012318460C374A
:101C3000BD465DF8047B704780B485B000AFF860A6
:101C4000B9607A60002318461437BD465DF8047BFE
:101C50007047000080B400AF064BD3F88830054AC7
:101C600043F47003C2F8883000BFBD465DF8047BC2
:101C7000704700BF00ED00E0DFF834D00D480E499A
:101C80000E4A002302E0D458C4500433C4188C42D6
:101C9000F9D30B4A0B4C002301E013600432A2423B
:101CA000FBD3FFF7D7FF08F073FCFFF7EDF97047A0
:101CB0000000022000000020F40100201CE20008C7
:101CC000F40100203C470120FEE7000080B500AF92
:101CD0000E4B1B680D4A43F4007313600B4B1B68DB
:101CE0000A4A43F480631360084B1B68074A43F4B5
:101CF00080731360032000F0D8F80F20FFF786FEF2
:101D0000FFF78EFD0023184680BD00BF003C024057
:101D100080B400AF064B1B781A46064B1B68134471
:101D2000044A136000BFBD465DF8047B704700BFE6
:101D30000C0000200003002080B400AF034B1B68A0
:101D40001846BD465DF8047B704700BF00030020C5
:101D500080B485B000AF78607B6803F00703FB6058
:101D60000C4BDB68BB60BA684FF6FF031340BB60E7
:101D7000FB681A02BB68134343F0BF6343F40033AC
:101D8000BB60044ABB68D36000BF1437BD465DF832
:101D9000047B704700ED00E080B400AF044BDB68CB
:101DA0001B0A03F007031846BD465DF8047B704725
:101DB00000ED00E080B483B000AF0346FB7197F9FB
:101DC0000730002B0BDBFB7903F01F02074997F963
:101DD00007305B09012000FA02F241F8232000BF1E
:101DE0000C37BD465DF8047B704700BF00E100E0A2
:101DF00080B483B000AF03463960FB7197F90730B8
:101E0000002B0ADB3B68DAB20C4997F90730120164
:101E1000D2B20B4483F800230AE03B68DAB20849E7
:101E2000FB7903F00F03043B1201D2B20B441A7684
:101E300000BF0C37BD465DF8047B704700E100E051
:101E400000ED00E080B489B000AFF860B9607A605E
:101E5000FB6803F00703FB61FB69C3F10703042B75
:101E600028BF0423BB61FB690433062B02D9FB693D
:101E7000033B00E000237B614FF0FF32BB6902FAB5
:101E800003F3DA43BB681A407B699A404FF0FF3195
:101E90007B6901FA03F3D9437B680B40134318466F
:101EA0002437BD465DF8047B704780B582B000AF33
:101EB00078607868FFF74CFF00BF0837BD4680BDEB
:101EC00080B586B000AF0346B9607A60FB7300232B
:101ED0007B61FFF761FF78617A68B9687869FFF71D
:101EE000B1FF024697F90F3011461846FFF780FF01
:101EF00000BF1837BD4680BD80B582B000AF034635
:101F0000FB7197F907301846FFF754FF00BF0837F9
:101F1000BD4680BD80B584B000AF78607B689B6DA6
:101F2000FB60FFF709FFB8607B6893F83530DBB2E0
:101F3000022B08D07B6880225A657B68002283F8D8
:101F40003420012352E07B681B681A687B681B6899
:101F500022F016021A607B681B685A697B681B684E
:101F600022F080025A617B681B6C002B03D17B68D6
:101F70009B6C002B07D07B681B681A687B681B680A
:101F800022F008021A607B681B681A687B681B686D
:101F900022F001021A6013E0FFF7CEFE0246BB6892
:101FA000D31A052B0CD97B6820225A657B68032243
:101FB00083F835207B68002283F83420032315E062
:101FC0007B681B681B6803F00103002BE4D17B686E
:101FD000DB6D3F229A40FB689A607B68012283F8A0
:101FE00035207B68002283F8342000231846103700
:101FF000BD4680BD80B483B000AF78607B6893F845
:102000003530DBB2022B04D07B6880225A65012375
:102010000CE07B68052283F835207B681B681A6812
:102020007B681B6822F001021A60002318460C37F7
:10203000BD465DF8047B704780B489B000AF78601E
:10204000396000237B6100233B610023BB610023D7
:10205000FB6165E10122FB6902FA03F37B613B68E6
:102060001B687A6913403B613A697B699A4240F088
:1020700054813B685B6803F00303012B05D03B6888
:102080005B6803F00303022B30D17B689B68BB6164
:10209000FB695B00032202FA03F3DB43BA691340D6
:1020A000BB613B68DA68FB695B0002FA03F3BA695B
:1020B0001343BB617B68BA699A607B685B68BB61EC
:1020C0000122FB6902FA03F3DB43BA691340BB61E7
:1020D0003B685B681B0903F00102FB6902FA03F32A
:1020E000BA691343BB617B68BA695A603B685B6835
:1020F00003F00303032B17D07B68DB68BB61FB692C
:102100005B00032202FA03F3DB43BA691340BB61AD
:102110003B689A68FB695B0002FA03F3BA691343F0
:10212000BB617B68BA69DA603B685B6803F00303F4
:10213000022B23D1FB69DA087B68083253F822307E
:10214000BB61FB6903F007039B000F2202FA03F354
:10215000DB43BA691340BB613B681A69FB6903F052
:1021600007039B0002FA03F3BA691343BB61FB69DF
:10217000DA087B680832B96943F822107B681B686B
:10218000BB61FB695B00032202FA03F3DB43BA691C
:102190001340BB613B685B6803F00302FB695B00B3
:1021A00002FA03F3BA691343BB617B68BA691A6028
:1021B0003B685B6803F44033002B00F0AE800023E3
:1021C000FB605D4B5B6C5C4A43F4804353645A4B49
:1021D0005B6C03F48043FB60FB68584AFB699B0817
:1021E000023352F82330BB61FB6903F003039B0009
:1021F0000F2202FA03F3DB43BA691340BB617B6829
:102200004F4A934225D07B684E4A93421FD07B6849
:102210004D4A934219D07B684C4A934213D07B6855
:102220004B4A93420DD07B684A4A934207D07B6861
:10223000494A934201D106230CE007230AE0052313
:1022400008E0042306E0032304E0022302E0012364
:1022500000E00023FA6902F0030292009340BA6999
:102260001343BB613549FB699B080233BA6941F8E6
:1022700023203A4B9B68BB613B69DB43BA6913403F
:10228000BB613B685B6803F48013002B03D0BA6921
:102290003B691343BB61314ABB6993602F4BDB68D9
:1022A000BB613B69DB43BA691340BB613B685B6858
:1022B00003F40013002B03D0BA693B691343BB61DD
:1022C000264ABB69D360254B5B68BB613B69DB4336
:1022D000BA691340BB613B685B6803F40033002BB1
:1022E00003D0BA693B691343BB611C4ABB695360A5
:1022F0001A4B1B68BB613B69DB43BA691340BB6186
:102300003B685B6803F48033002B03D0BA693B69F8
:102310001343BB61114ABB691360FB690133FB6165
:10232000FB690F2B7FF696AE00BF00BF2437BD467A
:102330005DF8047B704700BF003802400038014060
:10234000000002400004024000080240000C02406D
:10235000001002400014024000180240003C0140FE
:1023600080B483B000AF78600B467B8013467B70EF
:102370007B78002B03D07A887B689A6103E07B88A6
:102380001A047B689A6100BF0C37BD465DF8047B78
:102390007047000080B582B000AF0346FB80084B59
:1023A0005A69FB881340002B06D0054AFB8853610D
:1023B000FB88184600F006F800BF0837BD4680BD10
:1023C000003C014080B483B000AF0346FB8000BFF7
:1023D0000C37BD465DF8047B7047000080B584B0C3
:1023E00000AF786039607B68002B01D10123CCE01D
:1023F000684B1B6803F00F033A689A420CD9654B8F
:102400003A68D2B21A70634B1B6803F00F033A6844
:102410009A4201D00123B8E07B681B6803F00203F5
:10242000002B20D07B681B6803F00403002B05D031
:10243000594B9B68584A43F4E05393607B681B6890
:1024400003F00803002B05D0534B9B68524A43F41A
:1024500060439360504B9B6823F0F0027B689B685D
:102460004D4913438B607B681B6803F00103002B0D
:1024700044D07B685B68012B07D1474B1B6803F492
:102480000033002B19D101237FE07B685B68022BAE
:1024900003D07B685B68032B07D13F4B1B6803F0BD
:1024A0000073002B09D101236FE03B4B1B6803F045
:1024B0000203002B01D1012367E0374B9B6823F017
:1024C00003027B685B68344913438B60FFF734FC7D
:1024D000F8600AE0FFF730FC0246FB68D31A41F2CD
:1024E0008832934201D903234FE02B4B9B6803F0C2
:1024F0000C027B685B689B009A42EBD1254B1B6802
:1025000003F00F033A689A420CD2224B3A68D2B2D7
:102510001A70204B1B6803F00F033A689A4201D0EF
:10252000012332E07B681B6803F00403002B08D012
:10253000194B9B6823F4E0527B68DB681649134310
:102540008B607B681B6803F00803002B09D0124BDB
:102550009B6823F460427B681B69DB000E491343D0
:102560008B6000F087F802460B4B9B681B0903F059
:102570000F030A49CB5C22FA03F3094A1360094BA3
:102580001B681846FFF742FA002318461037BD466D
:1025900080BD00BF003C02400038024080DD0008E2
:1025A000040000200800002080B400AF034B1B682B
:1025B0001846BD465DF8047B704700BF040000204C
:1025C00080B500AFFFF7F0FF0246054B9B689B0A02
:1025D00003F007030349CB5C22FA03F3184680BDDE
:1025E0000038024090DD000880B500AFFFF7DCFF47
:1025F0000246054B9B685B0B03F007030349CB5C6A
:1026000022FA03F3184680BD0038024090DD00082E
:1026100080B483B000AF786039607B680F221A60A5
:10262000124B9B6803F003027B685A600F4B9B6858
:1026300003F0F0027B689A600C4B9B6803F4E05255
:102640007B68DA60094B9B68DB0803F4E0527B6827
:102650001A61074B1B6803F00F023B681A6000BF4A
:102660000C37BD465DF8047B704700BF0038024060
:10267000003C02402DE9B04FAEB000AF0023C7F8D8
:10268000AC300023C7F8B4300023C7F8A8300023CB
:10269000C7F8A4300023C7F8B030CB4B9B6803F0D9
:1026A0000C030C2B00F2068201A252F823F000BFAB
:1026B000E5260008B52A0008B52A0008B52A000852
:1026C000ED260008B52A0008B52A0008B52A00083A
:1026D000F5260008B52A0008B52A0008B52A000822
:1026E000E5280008B94BC7F8B030E7E1B84BC7F8A8
:1026F000B030E3E1B44B5B6803F03F03C7F8AC30A4
:10270000B14B5B6803F48003002B71D0AE4B5B6868
:102710009B090022C7F89830C7F89C20D7F898305A
:10272000C3F30803C7F890300023C7F89430D7E903
:10273000244522462B464FF000004FF0000159017E
:1027400041EAD261500102460B462146511A3964D2
:10275000294663EB01037B644FF000024FF0000356
:10276000D7E9108949468B01414643EA91634146C6
:102770008A014146511AB963494663EB0103FB6381
:102780004FF000024FF00003D7E90E894946CB0015
:10279000414643EA51734146CA0010461946034672
:1027A00022469B183B632B460A4642EB03037B639E
:1027B0004FF000024FF00003D7E90C4529464B02C9
:1027C000214643EAD15321464A0210461946D7F81A
:1027D000AC300022C7F88830C7F88C20D7E9222314
:1027E000FEF79AFA02460B461346C7F8B43067E084
:1027F000754B5B689B090022C7F88030C7F88420BE
:10280000D7F88030C3F30803BB670023FB67D7E921
:102810001E4522462B464FF000004FF000015901A3
:1028200041EAD261500102460B462146511AB96273
:10283000294663EB0103FB624FF000024FF00003F7
:10284000D7E90A8949468B01414643EA91634146EB
:102850008A014146B2EB010A494663EB010B4FF096
:1028600000024FF000034FEACB0343EA5A734FEAEA
:10287000CA0292469B4623461AEB03033B622B4651
:102880004BEB03037B624FF000024FF00003D7E9EC
:10289000084529468B02214643EA915321468A0284
:1028A00010461946D7F8AC3000223B677A67D7E963
:1028B0001C23FEF731FA02460B461346C7F8B43024
:1028C000414B5B681B0C03F0030301335B00C7F84B
:1028D000A830D7F8B420D7F8A830B2FBF3F3C7F884
:1028E000B030EBE0384B5B6803F03F03C7F8AC3027
:1028F000354B5B6803F48003002B6BD0324B5B6875
:102900009B090022BB66FA66BB6EC3F308033B66F5
:1029100000237B66D7E9184522462B464FF000007E
:102920004FF00001590141EAD261500102460B46C5
:102930002146511AB961294663EB0103FB614FF04F
:1029400000024FF00003D7E906AB59468B01514610
:1029500043EA916351468A015146B2EB0108594658
:1029600063EB01094FF000024FF000034FEAC90387
:1029700043EA58734FEAC80290469946234618EB3B
:1029800003033B612B4649EB03037B614FF00002DD
:102990004FF00003D7E9044529464B02214643EA9C
:1029A000D15321464A0210461946D7F8AC300022CE
:1029B000BB65FA65D7E91623FEF7AEF902460B466A
:1029C0001346C7F8B43065E0003802400024F40034
:1029D00000127A003D4B5B689B09002218461146A5
:1029E000C0F308033B6500237B65D7E914894246A1
:1029F0004B464FF000004FF00001590141EAD2610F
:102A0000500102460B464146511AB960494663EBF4
:102A10000103FB604FF000024FF00003D7E902AB67
:102A200059468B01514643EA916351468A0151460A
:102A3000541A594663EB01054FF000024FF00003B2
:102A4000EB0043EA5473E20014461D464346E31884
:102A50003B604B4645EB03037B604FF000024FF0B9
:102A60000003D7E9004529468B02214643EA9153EA
:102A700021468A0210461946D7F8AC300022BB64C2
:102A8000FA64D7E91223FEF747F902460B461346CC
:102A9000C7F8B4300D4B5B681B0F03F00703C7F892
:102AA000A430D7F8B420D7F8A430B2FBF3F3C7F8BA
:102AB000B03003E0064BC7F8B03000BFD7F8B030F5
:102AC0001846B837BD46BDE8B08F00BF0038024099
:102AD0000024F40080B586B000AF78607B68002BDE
:102AE00001D101238DE27B681B6803F00103002BF9
:102AF00000F08380944B9B6803F00C03042B19D0E7
:102B0000914B9B6803F00C03082B06D18E4B5B683E
:102B100003F48003B3F5800F0CD08B4B9B6803F05C
:102B20000C030C2B12D1884B5B6803F48003B3F5C4
:102B3000800F0BD1844B1B6803F40033002B5BD058
:102B40007B685B68002B57D101235AE27B685B6886
:102B5000B3F5803F06D17C4B1B687B4A43F480333E
:102B600013601DE07B685B68B3F5A02F0CD1764B3A
:102B70001B68754A43F480231360734B1B68724AC9
:102B800043F4803313600BE06F4B1B686E4A23F4F1
:102B9000803313606C4B1B686B4A23F480231360F3
:102BA0007B685B68002B13D0FFF7C6F8386108E03C
:102BB000FFF7C2F802463B69D31A642B01D90323FD
:102BC0001FE2614B1B6803F40033002BF0D014E0CC
:102BD000FFF7B2F8386108E0FFF7AEF802463B694C
:102BE000D31A642B01D903230BE2574B1B6803F460
:102BF0000033002BF0D100E000BF7B681B6803F0BE
:102C00000203002B6FD0504B9B6803F00C03002B8A
:102C100017D04D4B9B6803F00C03082B05D14A4B92
:102C20005B6803F48003002B0BD0474B9B6803F0D9
:102C30000C030C2B1CD1444B5B6803F48003002B6A
:102C400016D1414B1B6803F00203002B05D07B68B3
:102C5000DB68012B01D00123D3E13B4B1B6823F040
:102C6000F8027B681B69DB00374913430B603AE0CD
:102C70007B68DB68002B20D0344B01221A60FFF701
:102C80005BF8386108E0FFF757F802463B69D31A52
:102C9000022B01D90323B4E12B4B1B6803F0020381
:102CA000002BF0D0284B1B6823F0F8027B681B69CF
:102CB000DB00254913430B6015E0244B00221A600A
:102CC000FFF73AF8386108E0FFF736F802463B694B
:102CD000D31A022B01D9032393E11B4B1B6803F08A
:102CE0000203002BF0D17B681B6803F00803002B64
:102CF00036D07B685B69002B16D0154B01221A6019
:102D0000FFF71AF8386108E0FFF716F802463B694A
:102D1000D31A022B01D9032373E10B4B5B6F03F032
:102D20000203002BF0D01BE0094B00221A60FFF7D2
:102D300003F838610EE0FEF7FFFF02463B69D31A45
:102D4000022B07D903235CE1003802400000474210
:102D5000800E47428A4B5B6F03F00203002BEAD1DF
:102D60007B681B6803F00403002B00F097800023AE
:102D7000FB75834B1B6C03F08053002B0FD100239A
:102D8000BB607F4B1B6C7E4A43F0805313647C4BCB
:102D90001B6C03F08053BB60BB680123FB75794B50
:102DA0001B6803F48073002B18D1764B1B68754A9F
:102DB00043F480731360FEF7BFFF386108E0FEF74D
:102DC000BBFF02463B69D31A022B01D9032318E14A
:102DD0006C4B1B6803F48073002BF0D07B689B68FE
:102DE000012B06D1664B1B6F654A43F00103136745
:102DF0001CE07B689B68052B0CD1614B1B6F604A04
:102E000043F0040313675E4B1B6F5D4A43F00103FD
:102E100013670BE05A4B1B6F594A23F001031367EA
:102E2000574B1B6F564A23F0040313677B689B685C
:102E3000002B15D0FEF780FF38610AE0FEF77CFF1B
:102E400002463B69D31A41F28832934201D90323E7
:102E5000D7E04B4B1B6F03F00203002BEED014E0C6
:102E6000FEF76AFF38610AE0FEF766FF02463B693B
:102E7000D31A41F28832934201D90323C1E0404B77
:102E80001B6F03F00203002BEED1FB7D012B05D15C
:102E90003B4B1B6C3A4A23F0805313647B689B695D
:102EA000002B00F0AD80364B9B6803F00C03082B21
:102EB00060D07B689B69022B45D1334B00221A609E
:102EC000FEF73AFF386108E0FEF736FF02463B693D
:102ED000D31A022B01D9032393E0294B1B6803F07B
:102EE0000073002BF0D17B68DA697B681B6A1A4398
:102EF0007B685B6A9B011A437B689B6A5B08013BAA
:102F00001B041A437B68DB6A1B061A437B681B6B36
:102F10001B071B4913434B601B4B01221A60FEF732
:102F20000BFF386108E0FEF707FF02463B69D31A42
:102F3000022B01D9032364E0114B1B6803F00073DB
:102F4000002BF0D05CE0104B00221A60FEF7F4FE7C
:102F5000386108E0FEF7F0FE02463B69D31A022B07
:102F600001D903234DE0064B1B6803F00073002BCF
:102F7000F0D145E07B689B69012B07D1012340E03C
:102F80000038024000700040600047421F4B5B6801
:102F9000FB607B689B69012B30D0FB6803F48002E7
:102FA0007B68DB699A4229D1FB6803F03F027B68AA
:102FB0001B6A9A4222D1FA6847F6C07313407A68B6
:102FC000526A9201934219D1FB6803F440327B6844
:102FD0009B6A5B08013B1B049A420FD1FB6803F01C
:102FE00070627B68DB6A1B069A4207D1FB6803F0BC
:102FF000E0427B681B6B1B079A4201D0012300E073
:10300000002318461837BD4680BD00BF0038024077
:1030100080B582B000AF78607B68002B01D10123BE
:1030200041E07B6893F83D30DBB2002B06D17B6832
:10303000002283F83C207868FEF71AFC7B680222A5
:1030400083F83D207B681A687B6804331946104674
:1030500000F07AFC7B68012283F846207B6801221D
:1030600083F83E207B68012283F83F207B680122A1
:1030700083F840207B68012283F841207B6801228D
:1030800083F842207B68012283F843207B68012279
:1030900083F844207B68012283F845207B68012265
:1030A00083F83D20002318460837BD4680BD000048
:1030B00080B485B000AF78607B6893F83D30DBB2B8
:1030C000012B01D001234EE07B68022283F83D20D2
:1030D0007B681B68DA687B681B6842F00102DA6073
:1030E0007B681B68234A934222D07B681B68B3F13C
:1030F000804F1DD07B681B681F4A934218D07B68A5
:103100001B681E4A934213D07B681B681C4A93427B
:103110000ED07B681B681B4A934209D07B681B68F2
:10312000194A934204D07B681B68184A934211D114
:103130007B681B689B6803F00703FB60FB68062B3A
:1031400010D07B681B681A687B681B6842F001021C
:103150001A6007E07B681B681A687B681B6842F08E
:1031600001021A60002318461437BD465DF8047B3F
:10317000704700BF0000014000040040000800400C
:10318000000C0040000401400040014000180040D5
:1031900080B582B000AF78607B68002B01D101233D
:1031A00041E07B6893F83D30DBB2002B06D17B68B1
:1031B000002283F83C20786800F039F87B6802220E
:1031C00083F83D207B681A687B68043319461046F3
:1031D00000F0BAFB7B68012283F846207B6801225D
:1031E00083F83E207B68012283F83F207B68012220
:1031F00083F840207B68012283F841207B6801220C
:1032000083F842207B68012283F843207B680122F7
:1032100083F844207B68012283F845207B680122E3
:1032200083F83D20002318460837BD4680BD80B492
:1032300083B000AF786000BF0C37BD465DF8047BFB
:103240007047000080B584B000AF786039603B689B
:10325000002B09D17B6893F83E30DBB2012B14BF01
:1032600001230023DBB222E03B68042B09D17B68F9
:1032700093F83F30DBB2012B14BF01230023DBB2F4
:1032800015E03B68082B09D17B6893F84030DBB22E
:10329000012B14BF01230023DBB208E07B6893F805
:1032A0004130DBB2012B14BF01230023DBB2002B22
:1032B00001D001237CE03B68002B04D17B68022213
:1032C00083F83E2013E03B68042B04D17B68022284
:1032D00083F83F200BE03B68082B04D17B68022277
:1032E00083F8402003E07B68022283F841207B685A
:1032F0001B6801223968184600F010FE7B681B68C5
:103300002D4A934204D07B681B682C4A934201D11A
:10331000012300E00023002B07D07B681B685A6C58
:103320007B681B6842F400425A647B681B68224A2F
:10333000934222D07B681B68B3F1804F1DD07B681D
:103340001B681F4A934218D07B681B681D4A934232
:1033500013D07B681B681C4A93420ED07B681B68A5
:10336000164A934209D07B681B68184A934204D0DE
:103370007B681B68164A934211D17B681B689B6867
:1033800003F00703FB60FB68062B10D07B681B680B
:103390001A687B681B6842F001021A6007E07B68CC
:1033A0001B681A687B681B6842F001021A600023E0
:1033B00018461037BD4680BD0000014000040140A2
:1033C0000004004000080040000C004000400140A4
:1033D0000018004080B582B000AF78607B681B6841
:1033E0001B6903F00203022B22D17B681B68DB6898
:1033F00003F00203022B1BD17B681B686FF00202F3
:103400001A617B6801221A777B681B689B6903F04D
:103410000303002B03D0786800F077FA05E07868A2
:1034200000F069FA786800F07AFA7B6800221A776F
:103430007B681B681B6903F00403042B22D17B68A3
:103440001B68DB6803F00403042B1BD17B681B683B
:103450006FF004021A617B6802221A777B681B688E
:103460009B6903F44073002B03D0786800F04DFA99
:1034700005E0786800F03FFA786800F050FA7B6861
:1034800000221A777B681B681B6903F00803082B6E
:1034900022D17B681B68DB6803F00803082B1BD173
:1034A0007B681B686FF008021A617B6804221A7738
:1034B0007B681B68DB6903F00303002B03D078688B
:1034C00000F023FA05E0786800F015FA786800F05B
:1034D00026FA7B6800221A777B681B681B6903F059
:1034E0001003102B22D17B681B68DB6803F01003EC
:1034F000102B1BD17B681B686FF010021A617B6870
:1035000008221A777B681B68DB6903F44073002B81
:1035100003D0786800F0F9F905E0786800F0EBF97D
:10352000786800F0FCF97B6800221A777B681B68DA
:103530001B6903F00103012B0ED17B681B68DB685C
:1035400003F00103012B07D17B681B686FF00102B8
:103550001A617868FEF74CF97B681B681B6903F0F9
:103560008003802B0ED17B681B68DB6803F080032F
:10357000802B07D17B681B686FF080021A61786826
:1035800000F0CAFD7B681B681B6903F04003402BF9
:103590000ED17B681B68DB6803F04003402B07D12A
:1035A0007B681B686FF040021A61786800F0C1F90F
:1035B0007B681B681B6903F02003202B0ED17B68FE
:1035C0001B68DB6803F02003202B07D17B681B6896
:1035D0006FF020021A61786800F094FD00BF083790
:1035E000BD4680BD80B586B000AFF860B9607A6036
:1035F0000023FB75FB6893F83C30012B01D10223BB
:10360000AEE0FB68012283F83C207B680C2B00F2C3
:103610009F8001A252F823F04D3600085137000870
:1036200051370008513700088D360008513700081F
:103630005137000851370008CF36000851370008CD
:1036400051370008513700080F370008FB681B6826
:10365000B968184600F018FAFB681B689A69FB689D
:103660001B6842F008029A61FB681B689A69FB6854
:103670001B6822F004029A61FB681B689969BB68A9
:103680001A69FB681B680A439A6164E0FB681B685F
:10369000B968184600F068FAFB681B689A69FB680D
:1036A0001B6842F400629A61FB681B689A69FB68B8
:1036B0001B6822F480629A61FB681B689969BB6889
:1036C0001B691A02FB681B680A439A6143E0FB68A6
:1036D0001B68B968184600F0BDFAFB681B68DA6918
:1036E000FB681B6842F00802DA61FB681B68DA6954
:1036F000FB681B6822F00402DA61FB681B68D96969
:10370000BB681A69FB681B680A43DA6123E0FB683F
:103710001B68B968184600F011FBFB681B68DA6982
:10372000FB681B6842F40062DA61FB681B68DA69B7
:10373000FB681B6822F48062DA61FB681B68D96948
:10374000BB681B691A02FB681B680A43DA6102E066
:103750000123FB7500BFFB68002283F83C20FB7D42
:1037600018461837BD4680BD80B584B000AF78607C
:1037700039600023FB737B6893F83C30012B01D147
:103780000223B4E07B68012283F83C207B6802229C
:1037900083F83D207B681B689B68BB60BB6823F097
:1037A0007703BB60BB6823F47F43BB607B681B6807
:1037B000BA689A603B681B68B3F5005F3ED0B3F50A
:1037C000005F00F28780B3F5805F00F08680B3F57C
:1037D000805F7FD8702B1AD0702B7BD8602B50D095
:1037E000602B77D8502B3CD0502B73D8402B58D01F
:1037F000402B6FD8302B64D0302B6BD8202B60D06F
:10380000202B67D8002B5CD0102B5AD062E07B684D
:1038100018683B6899683B685A683B68DB6800F049
:103820005DFB7B681B689B68BB60BB6843F07703EC
:10383000BB607B681B68BA689A604FE07B68186859
:103840003B6899683B685A683B68DB6800F046FB58
:103850007B681B689A687B681B6842F480429A60A8
:103860003CE07B6818683B6859683B68DB681A462F
:1038700000F0BAFA7B681B685021184600F013FB71
:103880002CE07B6818683B6859683B68DB681A461F
:1038900000F0D9FA7B681B686021184600F003FB32
:1038A0001CE07B6818683B6859683B68DB681A460F
:1038B00000F09AFA7B681B684021184600F0F3FA82
:1038C0000CE07B681A683B681B681946104600F0DC
:1038D000EAFA03E00123FB7300E000BF7B680122EA
:1038E00083F83D207B68002283F83C20FB7B184650
:1038F0001037BD4680BD80B483B000AF786000BF94
:103900000C37BD465DF8047B704780B483B000AFD0
:10391000786000BF0C37BD465DF8047B704780B40B
:1039200083B000AF786000BF0C37BD465DF8047B04
:10393000704780B483B000AF786000BF0C37BD46DD
:103940005DF8047B7047000080B485B000AF7860FC
:1039500039607B681B68FB607B68404A934213D0E8
:103960007B68B3F1804F0FD07B683D4A93420BD008
:103970007B683C4A934207D07B683B4A934203D022
:103980007B683A4A934208D1FB6823F07003FB60DE
:103990003B685B68FA681343FB607B682F4A93427D
:1039A0002BD07B68B3F1804F27D07B682C4A9342A1
:1039B00023D07B682B4A93421FD07B682A4A9342CC
:1039C0001BD07B68294A934217D07B68284A9342D0
:1039D00013D07B68274A93420FD07B68264A9342D4
:1039E0000BD07B68254A934207D07B68244A9342D8
:1039F00003D07B68234A934208D1FB6823F44073C9
:103A0000FB603B68DB68FA681343FB60FB6823F0EC
:103A100080023B685B691343FB607B68FA681A604D
:103A20003B689A687B68DA623B681A687B689A62CE
:103A30007B680A4A934203D07B680C4A934203D1C5
:103A40003B681A697B681A637B6801225A6100BF70
:103A50001437BD465DF8047B704700BF000001408D
:103A60000004004000080040000C00400004014039
:103A7000004001400044014000480140001800405F
:103A8000001C00400020004080B487B000AF786088
:103A900039607B681B6A23F001027B681A627B68CD
:103AA0001B6A7B617B685B683B617B689B69FB6031
:103AB000FB6823F07003FB60FB6823F00303FB60EB
:103AC0003B681B68FA681343FB607B6923F00203C1
:103AD0007B613B689B687A6913437B617B68204A02
:103AE000934203D07B681F4A93420CD17B6923F039
:103AF00008037B613B68DB687A6913437B617B6900
:103B000023F004037B617B68154A934203D07B68F2
:103B1000144A934211D13B6923F480733B613B69A2
:103B200023F400733B613B685B693A6913433B6173
:103B30003B689B693A6913433B617B683A695A6009
:103B40007B68FA689A613B685A687B685A637B684D
:103B50007A691A6200BF1C37BD465DF8047B704766
:103B6000000001400004014080B487B000AF7860DD
:103B700039607B681B6A23F010027B681A627B68DD
:103B80001B6A7B617B685B683B617B689B69FB6050
:103B9000FB6823F4E043FB60FB6823F44073FB60A5
:103BA0003B681B681B02FA681343FB607B6923F0C8
:103BB00020037B613B689B681B017A6913437B612F
:103BC0007B68224A934203D07B68214A93420DD1FD
:103BD0007B6923F080037B613B68DB681B017A69AA
:103BE00013437B617B6923F040037B617B68174A49
:103BF000934203D07B68164A934213D13B6923F466
:103C000080633B613B6923F400633B613B685B6914
:103C10009B003A6913433B613B689B699B003A698F
:103C200013433B617B683A695A607B68FA689A6122
:103C30003B685A687B689A637B687A691A6200BF3E
:103C40001C37BD465DF8047B704700BF0000014093
:103C50000004014080B487B000AF786039607B68B1
:103C60001B6A23F480727B681A627B681B6A7B6123
:103C70007B685B683B617B68DB69FB60FB6823F00A
:103C80007003FB60FB6823F00303FB603B681B6869
:103C9000FA681343FB607B6923F400737B613B6824
:103CA0009B681B027A6913437B617B68214A9342BC
:103CB00003D07B68204A93420DD17B6923F40063D3
:103CC0007B613B68DB681B027A6913437B617B691C
:103CD00023F480637B617B68164A934203D07B6840
:103CE000154A934213D13B6923F480533B613B69EE
:103CF00023F400533B613B685B691B013A69134342
:103D00003B613B689B691B013A6913433B617B68DC
:103D10003A695A607B68FA68DA613B685A687B687E
:103D2000DA637B687A691A6200BF1C37BD465DF8AA
:103D3000047B7047000001400004014080B487B05C
:103D400000AF786039607B681B6A23F480527B681F
:103D50001A627B681B6A3B617B685B687B617B687E
:103D6000DB69FB60FB6823F4E043FB60FB6823F442
:103D70004073FB603B681B681B02FA681343FB60DF
:103D80003B6923F400533B613B689B681B033A6922
:103D900013433B617B68124A934203D07B68114A0C
:103DA000934209D17B6923F480437B613B685B6963
:103DB0009B017A6913437B617B687A695A607B68EF
:103DC000FA68DA613B685A687B681A647B683A690A
:103DD0001A6200BF1C37BD465DF8047B704700BF08
:103DE000000001400004014080B487B000AFF860DB
:103DF000B9607A60FB681B6A7B61FB681B6A23F011
:103E00000102FB681A62FB689B693B613B6923F016
:103E1000F0033B617B681B013A6913433B617B699B
:103E200023F00A037B617A69BB6813437B61FB68FB
:103E30003A699A61FB687A691A6200BF1C37BD460D
:103E40005DF8047B704780B487B000AFF860B9605C
:103E50007A60FB681B6A23F01002FB681A62FB6839
:103E60009B697B61FB681B6A3B617B6923F4704340
:103E70007B617B681B037A6913437B613B6923F099
:103E8000A0033B61BB681B013A6913433B61FB68BC
:103E90007A699A61FB683A691A6200BF1C37BD46AD
:103EA0005DF8047B704780B485B000AF78603960FE
:103EB0007B689B68FB60FB6823F07003FB603A68DB
:103EC000FB68134343F00703FB607B68FA689A6062
:103ED00000BF1437BD465DF8047B704780B487B0DF
:103EE00000AFF860B9607A603B60FB689B687B61FB
:103EF0007B6923F47F437B613B681A027B681A432A
:103F0000BB6813437A6913437B61FB687A699A60E3
:103F100000BF1C37BD465DF8047B704780B487B096
:103F200000AFF860B9607A60BB6803F01F0301223C
:103F300002FA03F37B61FB681A6A7B69DB431A4070
:103F4000FB681A62FB681A6ABB6803F01F03796892
:103F500001FA03F31A43FB681A6200BF1C37BD461F
:103F60005DF8047B7047000080B485B000AF7860D6
:103F700039607B6893F83C30012B01D102235AE071
:103F80007B68012283F83C207B68022283F83D2075
:103F90007B681B685B68FB607B681B689B68BB6019
:103FA000FB6823F07003FB603B681B68FA681343EF
:103FB000FB607B681B68FA685A607B681B68214A53
:103FC000934222D07B681B68B3F1804F1DD07B6881
:103FD0001B681D4A934218D07B681B681B4A93429A
:103FE00013D07B681B681A4A93420ED07B681B680B
:103FF000184A934209D07B681B68174A934204D041
:104000007B681B68154A93420CD1BB6823F0800380
:10401000BB603B685B68BA681343BB607B681B6826
:10402000BA689A607B68012283F83D207B68002291
:1040300083F83C20002318461437BD465DF8047B06
:10404000704700BF0000014000040040000800402D
:10405000000C0040000401400040014000180040F6
:1040600080B485B000AF786039600023FB607B6866
:1040700093F83C30012B01D102233DE07B68012203
:1040800083F83C20FB6823F0FF023B68DB681343A6
:10409000FB60FB6823F440723B689B681343FB6042
:1040A000FB6823F480623B685B681343FB60FB683A
:1040B00023F400623B681B681343FB60FB6823F436
:1040C00080523B681B691343FB60FB6823F400527A
:1040D0003B685B691343FB60FB6823F480423B68E9
:1040E000DB691343FB607B681B68FA685A647B6872
:1040F000002283F83C20002318461437BD465DF8A3
:10410000047B704780B483B000AF786000BF0C3789
:10411000BD465DF8047B704780B483B000AF786023
:1041200000BF0C37BD465DF8047B704780B582B098
:1041300000AF78607B68002B01D101233FE07B68F2
:1041400093F83D30DBB2002B06D17B68002283F868
:104150003C207868FDF7E8FB7B68242283F83D204B
:104160007B681B68DA687B681B6822F40052DA609F
:10417000786800F0DFFD7B681B681A697B681B6844
:1041800022F490421A617B681B685A697B681B683D
:1041900022F02A025A617B681B68DA687B681B6818
:1041A00042F40052DA607B6800221A647B682022A5
:1041B00083F83D207B68202283F83E2000231846A8
:1041C0000837BD4680BD80B58AB002AFF860B960DF
:1041D0003B601346FB8000237B61FB6893F83D3016
:1041E000DBB2202B7CD1BB68002B02D0FB88002BDC
:1041F00001D1012375E0FB6893F83C30012B01D11C
:1042000002236EE0FB68012283F83C20FB68002259
:104210001A64FB68212283F83D20FDF78DFD78614B
:10422000FB68FA889A84FB68FA88DA84FB689B68E2
:10423000B3F5805F08D1FB681B69002B04D1002314
:10424000FB61BB68BB6103E0BB68FB610023BB6132
:10425000FB68002283F83C202AE03B6800937B69DE
:1042600000228021F86800F01FFB0346002B01D0DC
:10427000032336E0FB69002B0BD1BB691B881A4670
:10428000FB681B68C2F308025A60BB690233BB615A
:1042900007E0FB691A78FB681B685A60FB69013309
:1042A000FB61FB68DB8C9BB2013B9AB2FB68DA8452
:1042B000FB68DB8C9BB2002BCFD13B6800937B6902
:1042C00000224021F86800F0EFFA0346002B01D0ED
:1042D000032306E0FB68202283F83D20002300E052
:1042E000022318462037BD4680BD80B584B000AF9C
:1042F000F860B9601346FB80FB6893F83E30DBB290
:10430000202B1DD1BB68002B02D0FB88002B01D1D4
:10431000012316E0FB6893F83C30012B01D1022306
:104320000FE0FB68012283F83C20FB6800221A633F
:10433000FB881A46B968F86800F024FB034600E0E1
:10434000022318461037BD4680BD000080B5BAB0C4
:1043500000AF78607B681B681B68C7F8E4307B6837
:104360001B68DB68C7F8E0307B681B685B69C7F8CF
:10437000DC300023C7F8D8300023C7F8D430D7F892
:10438000E43003F00F03C7F8D830D7F8D830002B4B
:104390000FD1D7F8E43003F02003002B09D0D7F871
:1043A000E03003F02003002B03D0786800F007FC16
:1043B00056E2D7F8D830002B00F0DE80D7F8DC309A
:1043C00003F00103002B06D1D7F8E03003F490731B
:1043D000002B00F0D180D7F8E43003F00103002B6C
:1043E0000BD0D7F8E03003F48073002B05D07B6846
:1043F0001B6C43F001027B681A64D7F8E43003F0C9
:104400000403002B0BD0D7F8DC3003F00103002BA2
:1044100005D07B681B6C43F002027B681A64D7F8F6
:10442000E43003F00203002B0BD0D7F8DC3003F0AC
:104430000103002B05D07B681B6C43F004027B68F2
:104440001A64D7F8E43003F00803002B11D0D7F832
:10445000E03003F02003002B05D1D7F8DC3003F067
:104460000103002B05D07B681B6C43F008027B68BE
:104470001A647B681B6C002B00F0ED81D7F8E430E8
:1044800003F02003002B08D0D7F8E03003F020031E
:10449000002B02D0786800F092FB7B681B685B6998
:1044A00003F04003402B0CBF01230023DBB2C7F80D
:1044B000D4307B681B6C03F00803002B03D1D7F8C2
:1044C000D430002B4FD0786800F09AFA7B681B68D4
:1044D0005B6903F04003402B41D17B681B681433B8
:1044E000C7F89C30D7F89C3053E8003FC7F89830A5
:1044F000D7F8983023F04003C7F8D0307B681B68AA
:104500001433D7F8D020C7F8A820C7F8A430D7F8BC
:10451000A410D7F8A82041E80023C7F8A030D7F8A6
:10452000A030002BD9D17B689B6B002B13D07B680C
:104530009B6B7D4A1A657B689B6B1846FDF75AFD9D
:104540000346002B16D07B689B6B1B6D7A68926BC1
:10455000104698470EE0786800F090F90AE0786815
:1045600000F08CF906E0786800F088F97B6800229A
:104570001A6470E100BF6EE17B681B6B012B40F099
:104580004A81D7F8E43003F01003002B00F0438198
:10459000D7F8E03003F01003002B00F03C8100233B
:1045A000BB607B681B681B68BB607B681B685B68C3
:1045B000BB60BB687B681B685B6903F04003402BF2
:1045C00040F0B4807B689B6B1B685B68A7F8BE30CB
:1045D000B7F8BE30002B00F040817B689B8DB7F8A8
:1045E000BE209A4280F039817B68B7F8BE20DA8518
:1045F0007B689B6BDB69B3F5807F00F088807B680C
:104600001B680C33C7F88830D7F8883053E8003F70
:10461000C7F88430D7F8843023F48073C7F8B830F3
:104620007B681B680C33D7F8B820C7F89420C7F80C
:104630009030D7F89010D7F8942041E80023C7F8BD
:104640008C30D7F88C30002BD9D17B681B681433A1
:104650007B677B6F53E8003F3B673B6F23F00103B1
:10466000C7F8B4307B681B681433D7F8B420C7F898
:104670008020FB67F96FD7F8802041E80023BB67F3
:10468000BB6F002BE1D17B681B6814333B663B6E2C
:1046900053E8003FFB65FB6D23F04003C7F8B030E3
:1046A0007B681B681433D7F8B020FA66BB66B96E16
:1046B000FA6E41E800237B667B6E002BE3D17B68BA
:1046C000202283F83E207B6800221A637B681B68E7
:1046D0000C33FB64FB6C53E8003FBB64BB6C23F002
:1046E0001003C7F8AC307B681B680C33D7F8AC20DC
:1046F000BA657B65796DBA6D41E800233B653B6D1A
:10470000002BE3D17B689B6B1846FDF703FC7B68AD
:104710009A8D7B68DB8D9BB2D31A9BB21946786861
:1047200000F0B6F899E000BFC74A00087B689A8D90
:104730007B68DB8D9BB2D31AA7F8CE307B68DB8D0C
:104740009BB2002B00F08B80B7F8CE30002B00F02E
:1047500086807B681B680C33BB63BB6B53E8003FF0
:104760007B637B6B23F49073C7F8C8307B681B684E
:104770000C33D7F8C8207A643B64396C7A6C41E812
:104780000023FB63FB6B002BE3D17B681B681433B6
:104790007B627B6A53E8003F3B623B6A23F0010384
:1047A000C7F8C4307B681B681433D7F8C4203A6359
:1047B000FB62F96A3A6B41E80023BB62BB6A002BDB
:1047C000E3D17B68202283F83E207B6800221A63B5
:1047D0007B681B680C333B613B6953E8003FFB601F
:1047E000FB6823F01003C7F8C0307B681B680C33EC
:1047F000D7F8C020FA61BB61B969FA6941E80023C2
:104800007B617B69002BE3D1B7F8CE30194678681D
:1048100000F03EF823E0D7F8E43003F08003002BEB
:1048200009D0D7F8E03003F08003002B03D078687C
:1048300000F05DF914E0D7F8E43003F04003002BFA
:104840000ED0D7F8E03003F04003002B08D0786892
:1048500000F09DF904E000BF02E000BF00E000BFEF
:10486000E837BD4680BD00BF80B483B000AF78603C
:1048700000BF0C37BD465DF8047B704780B483B041
:1048800000AF786000BF0C37BD465DF8047B704711
:1048900080B483B000AF78600B467B8000BF0C37DC
:1048A000BD465DF8047B704780B590B000AFF860FE
:1048B000B9603B601346FB7150E0BB6CB3F1FF3F46
:1048C0004CD0BB6C002B07D0FDF736FA02463B6894
:1048D000D31ABA6C9A4241D2FB681B680C33BB6294
:1048E000BB6A53E8003F7B627B6A23F4D073FB63AF
:1048F000FB681B680C33FA6B7A633B63396B7A6B2A
:1049000041E80023FB62FB6A002BE5D1FB681B68D2
:1049100014337B617B6953E8003F3B613B6923F0C3
:104920000103BB63FB681B681433BA6B3A62FB611B
:10493000F9693A6A41E80023BB61BB69002BE5D104
:10494000FB68202283F83D20FB68202283F83E206C
:10495000FB68002283F83C2003230FE0FB681B6800
:104960001A68BB681340BA689A420CBF012300233F
:10497000DBB21A46FB799A429FD000231846403793
:10498000BD4680BD80B485B000AFF860B960134605
:10499000FB80FB68BA689A62FB68FA889A85FB68B4
:1049A000FA88DA85FB6800221A64FB68222283F801
:1049B0003E20FB68002283F83C20FB681B69002B2B
:1049C00007D0FB681B68DA68FB681B6842F48072DA
:1049D000DA60FB681B685A69FB681B6842F00102D9
:1049E0005A61FB681B68DA68FB681B6842F02002AA
:1049F000DA60002318461437BD465DF8047B704723
:104A000080B495B000AF78607B681B680C337B6323
:104A10007B6B53E8003F3B633B6B23F49073FB6479
:104A20007B681B680C33FA6C3A64FB63F96B3A6C75
:104A300041E80023BB63BB6B002BE5D17B681B689F
:104A400014333B623B6A53E8003FFB61FB6923F090
:104A50000103BB647B681B681433BA6CFA62BB62E7
:104A6000B96AFA6A41E800237B627B6A002BE5D1D0
:104A70007B681B6B012B19D17B681B680C33FB60B7
:104A8000FB6853E8003FBB60BB6823F010037B6406
:104A90007B681B680C337A6CBA617B617969BA698F
:104AA00041E800233B613B69002BE5D17B68202274
:104AB00083F83E207B6800221A6300BF5437BD464E
:104AC0005DF8047B704780B584B000AF78607B6888
:104AD0009B6BFB60FB680022DA85FB680022DA84AE
:104AE000F868FFF7CBFE00BF1037BD4680BD80B42D
:104AF00085B000AF78607B6893F83D30DBB2212B46
:104B00003ED17B689B68B3F5805F14D17B681B69DD
:104B1000002B10D17B681B6AFB60FB681B881A4660
:104B20007B681B68C2F308025A607B681B6A9A1C88
:104B30007B681A6208E07B681B6A591C7A681162FC
:104B40001A787B681B685A607B68DB8C9BB2013BE0
:104B50009BB27A681946D184002B0FD17B681B6801
:104B6000DA687B681B6822F08002DA607B681B6869
:104B7000DA687B681B6842F04002DA60002300E0DC
:104B8000022318461437BD465DF8047B704780B594
:104B900082B000AF78607B681B68DA687B681B684E
:104BA00022F04002DA607B68202283F83D2078689A
:104BB000FFF75AFE002318460837BD4680BD80B572
:104BC0008CB000AF78607B6893F83E30DBB2222B6C
:104BD00040F0AB807B689B68B3F5805F17D17B6842
:104BE0001B69002B13D10023FB627B689B6ABB62AD
:104BF0007B681B685B689BB2C3F308039AB2BB6A0D
:104C00001A807B689B6A9A1C7B689A6226E07B68A4
:104C10009B6AFB620023BB627B689B68B3F5805F85
:104C200007D07B689B68002B0AD17B681B69002B2F
:104C300006D17B681B685B68DAB2FB6A1A7008E011
:104C40007B681B685B68DBB203F07F03DAB2FB6A48
:104C50001A707B689B6A5A1C7B689A627B68DB8D42
:104C60009BB2013B9BB27A681946D185002B5AD181
:104C70007B681B68DA687B681B6822F02002DA60B8
:104C80007B681B68DA687B681B6822F48072DA60D4
:104C90007B681B685A697B681B6822F001025A61B5
:104CA0007B68202283F83E207B681B6B012B35D16B
:104CB0007B6800221A637B681B680C337B617B690D
:104CC00053E8003F3B613B6923F010037B627B6844
:104CD0001B680C337A6A3A62FB61F9693A6A41E807
:104CE0000023BB61BB69002BE5D17B681B681B6897
:104CF00003F01003102B0AD10023FB607B681B68B4
:104D00001B68FB607B681B685B68FB60FB687B68FB
:104D10009B8D19467868FFF7BBFD02E07868FCF7C9
:104D200023FD002302E0002300E002231846303771
:104D3000BD4680BD2DE9B04FC0B000AFC7F8F4004C
:104D4000D7F8F4301B681B6923F44050D7F8F430CF
:104D5000D968D7F8F4301A6840EA01031361D7F82C
:104D6000F4309A68D7F8F4301B691A43D7F8F43056
:104D70005B691A43D7F8F430DB691343C7F8F8309E
:104D8000D7F8F4301B68DB6823F4164121F00C01DE
:104D9000D7F8F4301A68D7F8F8300B43D360D7F857
:104DA000F4301B685B6923F44070D7F8F4309969DC
:104DB000D7F8F4301A6840EA01035361D7F8F430A9
:104DC0001A688F4B9A4205D0D7F8F4301A688D4B89
:104DD0009A4204D1FDF708FCC7F8FC0003E0FDF798
:104DE000EFFBC7F8FC00D7F8F430DB69B3F5004FF0
:104DF00040F00C81D7F8FC300022C7F8E830C7F843
:104E0000EC20D7E93A4522462B469118B9655B411B
:104E1000FB65D7E91623214612EB0108294643EB2F
:104E200001094FF000024FF000034FEAC90343EAC3
:104E300058734FEAC80290469946234618EB03037D
:104E4000C7F8E0302B4649EB0303C7F8E430D7F846
:104E5000F4305B680022C7F8D830C7F8DC20D7E907
:104E600036120B46DB183B65134642EB03037B65AA
:104E7000D7E91423D7E93801FBF74EFF02460B466A
:104E8000614BA3FB02235B091C01D7F8FC30002215
:104E9000C7F8D030C7F8D420D7E9348942464B460A
:104EA0009118B9645B41FB64D7E91223414612EBC8
:104EB000010A494643EB010B4FF000024FF000039B
:104EC0004FEACB0343EA5A734FEACA0292469B4623
:104ED00043461AEB0303C7F8C8304B464BEB0303BA
:104EE000C7F8CC30D7F8F4305B680022C7F8C03080
:104EF000C7F8C420D7E930120B46DB183B641346D1
:104F000042EB03037B64D7E91023D7E93201FBF7B7
:104F100003FF02460B4611463B4BA3FB01235B09F3
:104F2000642202FB03F3CB1ADB0003F13202364B9F
:104F3000A3FB02235B095B0003F4F8731C44D7F85E
:104F4000FC300022C7F8B830C7F8BC20D7E92E895A
:104F500042464B469118B9635B41FB63D7E90E2388
:104F600041465118396349464B417B634FF000027B
:104F70004FF00003D7E90CAB5946CB00514643EA4A
:104F800051735146CA0010461946034642469B18C3
:104F9000C7F8B0304B460A4642EB0303C7F8B430BB
:104FA000D7F8F4305B680022C7F8A830C7F8AC2007
:104FB000D7E92A120B46DB18BB62134642EB030308
:104FC000FB62D7E90A23D7E92C01FBF7A5FE0246CD
:104FD0000B460D4BA3FB02135B09642101FB03F39A
:104FE000D31ADB003233084AA2FB03235B0903F028
:104FF0000702D7F8F4301B6822449A6005E100BF2D
:1050000000100140001401401F85EB51D7F8FC301F
:105010000022C7F8A030C7F8A420D7E92889424663
:105020004B46911839625B417B62D7E908234146C0
:105030005418494643EB01054FF000024FF00003BE
:10504000EB0043EA5473E20014461D464346E3185E
:10505000C7F898304B4645EB0303C7F89C30D7F8A8
:10506000F4305B680022C7F89030C7F894204FF006
:1050700000024FF00003D7E9244529468B00214662
:1050800043EA917321468A00D7E92601FBF744FEE3
:1050900002460B46604BA3FB02235B091C01D7F8B9
:1050A000FC300022C7F88830C7F88C20D7E9228965
:1050B00042464B469118B9615B41FB61D7E9062333
:1050C00041465118396149464B417B614FF000021E
:1050D0004FF00003D7E904AB5946CB00514643EAF1
:1050E00051735146CA0010461946034642469B1862
:1050F000C7F880304B460A4642EB0303C7F88430BA
:10510000D7F8F4305B680022BB67FA674FF0000203
:105110004FF00003D7E91E8949468B00414643EA18
:10512000917341468A00D7E92001FBF7F5FD02465D
:105130000B46394BA3FB02135B09642101FB03F30C
:10514000D31A1B013233344AA2FB03235B0903F059
:10515000F0031C44D7F8FC3000223B677A67D7E99C
:105160001C8942464B469118B9605B41FB60D7E908
:10517000022341465118396049464B417B604FF04C
:1051800000024FF00003D7E900AB5946CB0051466F
:1051900043EA51735146CA00104619460346424637
:1051A0009B18BB664B460A4642EB0303FB66D7F8E7
:1051B000F4305B6800223B667A664FF000024FF0E5
:1051C0000003D7E9188949468B00414643EA9173A9
:1051D00041468A00D7E91A01FBF79EFD02460B46BD
:1051E0000D4BA3FB02135B09642101FB03F3D31AEC
:1051F0001B013233084AA2FB03235B0903F00F02B1
:10520000D7F8F4301B6822449A6000BF07F5807716
:10521000BD46BDE8B08F00BF1F85EB5180B483B0A1
:1052200000AF78607B6803F108027B685A607B6896
:105230004FF0FF329A607B6803F108027B68DA6006
:105240007B6803F108027B681A617B6800221A60A0
:1052500000BF0C37BD465DF8047B704780B483B057
:1052600000AF78607B6800221A6100BF0C37BD4632
:105270005DF8047B704780B485B000AF786039601A
:105280003B681B68BB60BB68B3F1FF3F03D17B6821
:105290001B69FB600CE07B680833FB6002E0FB6885
:1052A0005B68FB60FB685B681B68BA689A42F6D271
:1052B000FB685A683B685A603B685B683A689A606A
:1052C0003B68FA689A60FB683A685A603B687A689B
:1052D0001A617B681B685A1C7B681A6000BF143710
:1052E000BD465DF8047B704780B485B000AF786040
:1052F0007B681B69FB607B685B687A6892689A6070
:105300007B689B687A6852685A60FB685B687A6859
:105310009A4203D17B689A68FB685A607B680022D6
:105320001A61FB681B685A1EFB681A60FB681B68E1
:1053300018461437BD465DF8047B704780B586B0CB
:1053400000AF7860396001237B617B683B613B691A
:10535000002B0AD14FF0500383F31188BFF36F8FF6
:10536000BFF34F8FFB6000BFFEE73B69002B5DD0B2
:105370003B69DB6B002B59D03B691A6C3B69DB6BDB
:105380000021A3FB0223002B00D001210B46002BA0
:105390004CD102F071F83B691A683B69DB6B3969E3
:1053A000096C01FB03F31A443B699A603B690022D4
:1053B0009A633B691A683B695A603B691A683B69A2
:1053C000DB6B013B3969096C01FB03F31A443B6950
:1053D000DA603B69FF2283F844203B69FF2283F8AF
:1053E00045203B68002B14D13B691B69002B1AD068
:1053F0003B691033184600F0E3FF0346002B12D040
:10540000154B4FF080521A60BFF34F8FBFF36F8F71
:1054100009E03B6910331846FFF700FF3B6924336E
:105420001846FFF7FBFE02F057F801E000237B610E
:105430007B69002B0AD14FF0500383F31188BFF32F
:105440006F8FBFF34F8FBB6000BFFEE77B691846CD
:105450001837BD4680BD00BF04ED00E080B58AB0BE
:1054600002AFF860B9601346FB710023FB61FB6873
:10547000002B2ED00021BA68FB68A3FB0223002B6F
:1054800000D001210B46002B23D1FB68BA6802FB38
:1054900003F313F1510F1CD8FB68BA6802FB03F346
:1054A000BB61BB695033184602F010F9F861FB6923
:1054B000002B1CD0FB697B617B6950337B61FA79DF
:1054C000FB69009313467A69B968F86800F014F82C
:1054D0000DE0FB69002B0AD14FF0500383F31188D4
:1054E000BFF36F8FBFF34F8F3B6100BFFEE7FB69D8
:1054F00018462037BD4680BD80B584B000AFF86047
:10550000B9607A60FB70BB68002B03D1BB69BA69D4
:105510001A6002E0BB697A681A60BB69FA68DA63EC
:10552000BB69BA681A640121B869FFF707FFBB6954
:10553000FA7883F84C20FB78BA68F968732004F095
:105540009FF800BF1037BD4680BD000090B58FB0FA
:1055500002AFF860B9607A600023FB62FB68BB624F
:10556000BB6A002B0AD14FF0500383F31188BFF3BD
:105570006F8FBFF34F8F3B6200BFFEE7BB68002B0E
:1055800003D1BB6A1B6C002B01D1012300E0002377
:10559000002B0AD14FF0500383F31188BFF36F8FB4
:1055A000BFF34F8FFB6100BFFEE701F01BF903461D
:1055B000002B02D17B68002B01D1012300E00023E6
:1055C000002B0AD14FF0500383F31188BFF36F8F84
:1055D000BFF34F8FBB6100BFFEE701F04DFFBB6A19
:1055E0009B6B7B627B6A002B2FD0B968B86A00F096
:1055F000BDF8BB6A184604F01FFE0446002004F004
:105600001BFE02467B680121009121465C2004F0CC
:10561000ADF87B6A5A1EBB6A9A63BB6A1B69002B92
:105620000FD0BB6A1033184600F0CAFE0346002BA9
:1056300007D04D4B4FF080521A60BFF34F8FBFF32E
:105640006F8F01F049FF01238AE07B68002B13D1A3
:1056500001F042FFBB6A184604F0EEFD044600204C
:1056600004F0EAFD02467B680121009121465C209E
:1056700004F07CF8002373E0FB6A002B06D107F1ED
:105680001003184600F074FF0123FB6201F024FFB1
:1056900000F072FB01F0F0FEBB6A93F844305BB29D
:1056A000B3F1FF3F03D1BB6A002283F84420BB6AF9
:1056B00093F845305BB2B3F1FF3F03D1BB6A0022E0
:1056C00083F8452001F008FF3A1D07F11003114649
:1056D000184600F063FF0346002B24D1B86A00F09F
:1056E000BDF80346002B18D0BB6A24337A681146F4
:1056F000184600F0F9FDB86A00F05EF800F04AFBC9
:105700000346002B7FF469AF174B4FF080521A60AD
:10571000BFF34F8FBFF36F8F5FE7B86A00F04CF8AD
:1057200000F038FB59E7B86A00F046F800F032FBA9
:10573000B86A00F093F80346002B3FF44EAFBB6A03
:10574000184604F079FD0446002004F075FD024679
:105750007B680121009121465C2004F007F80023BA
:1057600018463437BD4690BD04ED00E080B582B0E8
:1057700000AF786039607B681B6C002B18D07B68A9
:10578000DA687B681B6C1A447B68DA607B68DA68CD
:105790007B689B689A4203D37B681A687B68DA60EF
:1057A0007B68D9687B681B6C1A46386804F024FF54
:1057B00000BF0837BD4680BD80B584B000AF7860BB
:1057C00001F05AFE7B6893F84530FB7311E07B686B
:1057D0005B6A002B12D07B682433184600F0F0FD82
:1057E0000346002B01D000F03FFFFB7B013BDBB207
:1057F000FB7397F90F30002BE9DC00E000BF7B68FA
:10580000FF2283F8452001F067FE01F035FE7B683A
:1058100093F84430BB7311E07B681B69002B12D0F6
:105820007B681033184600F0CBFD0346002B01D0F7
:1058300000F01AFFBB7B013BDBB2BB7397F90E3064
:10584000002BE9DC00E000BF7B68FF2283F84420E6
:1058500001F042FE00BF1037BD4680BD80B584B068
:1058600000AF786001F008FE7B689B6B002B02D1D3
:105870000123FB6001E00023FB6001F02DFEFB68CB
:1058800018461037BD4680BD80B586B000AF786041
:10589000396000233B617B68002B0AD14FF0500335
:1058A00083F31188BFF36F8FBFF34F8FFB6000BF8F
:1058B000FEE73B68002B24D000237B611EE01C4ADE
:1058C0007B69DB0013445B687A689A4205D17B6987
:1058D000DB00174A13443B6113E03B69002B0AD1FC
:1058E000134A7B6952F83330002B04D17B69DB000B
:1058F0000F4A13443B617B6901337B617B69072B52
:10590000DDD93B69002B0FD03B693A681A603B69CF
:105910007A685A607B68184604F08EFC01463B6842
:105920001A46712003F052FE00BF1837BD4680BDF5
:105930000403002080B586B000AFF860B9607A60DB
:10594000FB687B6101F098FD7B6993F844305BB2A2
:10595000B3F1FF3F03D17B69002283F844207B69C8
:1059600093F845305BB2B3F1FF3F03D17B6900226E
:1059700083F8452001F0B0FD7B699B6B002B06D1BD
:105980007B6924337A68B968184600F0D1FC7869DD
:10599000FFF712FF00BF1837BD4680BD80B58CB041
:1059A00004AFF860B9603B601346FB80FB889B0046
:1059B000184601F08BFE78617B69002B13D05820CC
:1059C00001F084FEF861FB69002B08D05822002109
:1059D000F86904F01FFEFB697A691A6305E07869CB
:1059E00001F02EFF01E00023FB61FB69002B13D0C7
:1059F000FA8800230393FB690293FB6A0193BB6A55
:105A000000933B68B968F86800F00EF8F86900F098
:105A100099F80123BB6102E04FF0FF33BB61BB6922
:105A200018462037BD4680BD80B588B000AFF8600D
:105A3000B9607A603B603B6B186B7B689B001A46D1
:105A4000A52104F0E7FD3B6B1A6B7B6803F18043F3
:105A5000013B9B001344BB61BB6923F00703BB619F
:105A6000BB6903F00703002B0AD04FF0500383F308
:105A70001188BFF36F8FBFF34F8F7B6100BFFEE7CD
:105A8000BB68002B1ED00023FB6112E0BA68FB69E3
:105A9000134419783A6BFB69134434330A461A707D
:105AA000BA68FB6913441B78002B06D0FB690133ED
:105AB000FB61FB69092BE9D900E000BF3B6B0022C9
:105AC00083F83D20BB6A042B0AD94FF0500383F3BF
:105AD0001188BFF36F8FBFF34F8F3B6100BFFEE7AD
